:03000000020FBE2E
:0C0FBE00787FE4F6D8FD75813102100543
:10118400C2A58F807F017E00121195D2A77F057EB4
:01119400005A
:10119500D3EF9400EE9400400F7DC77C01DCFEDDAB
:0811A500FAEF1F70EB1E80E859
:0111AD00221F
:0A128600C2A7C2A6121184C2A7225B
:0A129000C2A7D2A6121184C2A72241
:10120C007F381212867F0C1212867F061212867F8E
:09121C00011212867F8002128685
:0E126D00000000000000000000000000000073
:08129A00062CC9E3CACFB6C857
:0B127B00EF1FAC0670011E4C70F62245
:10123E00E4FDB2957F5A7E0012127B0DBD64F3C29F
:08124E00957FE87E0302127B8C
:100CEC0078127C007D007BFF7A12796D7E007F0E7E
:100CFC00120C2D1212568E0E8F0F7FC01212867F81
:100D0C002B12129075992B3099FDC299AC0EAD0F28
:100D1C00EC120AA38F238E228D218C20E4FFFE7D02
:100D2C00C87C40AB23AA22A921A8201208F8E4FB16
:100D3C00FAF9783F120807120ADC8E0E8F0F7F9497
:100D4C001212258E268F27E52B64036003020E11E9
:100D5C00F52B7FE41212258E108F11AC26AD27E4F3
:100D6C00120AA3E4FBFA7940783F1208F8120ADC65
:100D7C008E248F25C3E51194B0E5109404403B7F7D
:100D8C00CC1212867F2B12129074502511F511740F
:100D9C00FB3510F510FCAD11E4120AA37B527AB8A6
:100DAC0079C67840120A01E4FBFA794078C012083F
:100DBC0007120ADC8E108F11804B7FCC1212867FAB
:100DCC002D12129074F72511F51174FB3510F510D6
:100DDC00FCAD11E4120AA37BCD7ACC796C7840126D
:100DEC000A01120ADC8E108F11E511242AF511E488
:100DFC003510F510D3E5119464E510940040067598
:100E0C00100075112D052BAE0EAF0F7C277D101227
:100E1C000CA88F12AE0EAF0F7C277D10120CA87E83
:100E2C00037FE8CFCDCFCECCCE120CA88F13AE0E55
:100E3C00AF0F7C037DE8120CA87E007F64CFCDCF72
:100E4C00CECCCE120CA88F14AE0EAF0F7C007D64EE
:100E5C00120CA87E007F0ACFCDCFCECCCE120CA820
:100E6C008F15AE0EAF0F7C007D0A120CA88D16AE3E
:100E7C0024AF257C037DE8120C538F17AE24AF25CD
:100E8C007C037DE8120C537E007F64CFCDCFCECC9B
:100E9C00CE120C538F18AE24AF257C007D64120C3F
:100EAC00537E007F0ACFCDCFCECCCE120C538F19F0
:100EBC00AE24AF257C007D0A120C538D1AAE10AFF8
:100ECC00117C037DE8120C538F1BAE10AF117C0309
:100EDC007DE8120C53AA04AB057D647C00AF03AE15
:100EEC0002120C538F1C7D647C00AF03AE02120CFB
:100EFC0053AA04AB057D0A7C00AF03AE02120C535F
:100F0C008F1D7D0A7C00AF03AE02120C538D1E7F29
:100F1C00C1121286E5122430FF1212907FC21212F7
:100F2C0086E5132430FF1212907FC3121286E5144B
:100F3C002430FF1212907FC41212867F2E12129050
:100F4C007FC5121286E5152430FF1212907F811294
:100F5C001286E5172430FF1212907F82121286E55A
:100F6C00182430FF1212907F83121286E519243058
:100F7C00FF1212907F841212867F2E1212907F85A0
:100F8C00121286E51A2430FF1212907FCD121286AF
:100F9C00E51C2430FF1212907FCE121286E51D2420
:100FAC0030FF1212907FCF121286E51E2430FF0202
:020FBC00129091
:101092007FC71212867F431212907F8D1212867FB3
:1010A200581212907F8E1212867F2D1212907F8F0D
:1010B2001212867F5A1212907F871212867F501266
:1010C20012907F881212867F501212907F8912121C
:0610D200867F4D02129022
:10104A00E4F50CF50D12120C1210927F941212256F
:10105A008E0A8F0BAC0AAD0BE4120AA3E4FBFA79F1
:10106A0040783F1208F8120ADC8E088F09120CEC3D
:10107A00C3E50994D0E508940740D012123E050D45
:08108A00E50D70C7050C80C3E1
:1011F000C2B6E4FEEFC4131313540124FF92B4EFFC
:0B12000025E0FFC2B6D2B60EBE08E922
:01120B0022C0
:1011AE00E4FFFEC2B6FDFCEF25E0FFEE33FED2B645
:1011BE00C2B6A2B7E43342070DBD00010CED640CBC
:0311CE004C70E47E
:0111D10022FB
:10122500C2B6C2B51211F07F06DFFED2B60000C20B
:08123500B600001211AED2B5A3
:01123D00228E
:1011D200D3EF9400EE940040147D6E7C00ED1D7000
:0D11E200011CED4C70F7EF1F70E61E80E35E
:0111EF0022DD
:10115800C2B77F467E00EF1FAC0670011E4C70F6CA
:10116800D2B7E4FEFF30B7110FBF00010ED3EF94E2
:0B11780088EE941340EF7F00227F01FF
:011183002249
:0C10D8001211587F017E001211D27FCC53
:1010E400E4FBFAC2B7052AE52A70020529EF139238
:1010F400B7752900752A06E52A152AAC2970021548
:10110400294C70F3D2B7EFC313FF0BBB00010AEBFA
:0511140064084A70CEE2
:0111190022B3
:10111A007D087C00C2B70FBF0000D2B70FBF000026
:10112A000FBF0000A2B7E433C43333335480FBE962
:10113A00C3134BF97E007F04EF1FAA0670011E4AF3
:0D114A0070F6ED1D70011CED4C70C9AF0179
:011157002275
:0812A3001210D87F440210E490
:0812AB001210D87FBE0210E40E
:10125600E4FFFE1212A31212AB12111A8F281211FA
:061266001AEFFEE528FF6F
:01126C00225F
:10080000020B48E86480F8E933E83360110460F0D3
:10081000ED33EC337009E8FCE9FDEAFEEBFF22045E
:1008200060DED3EB9FEA9EE99DE8C2E78CF0C2F759
:1008300095F0400CE8CCF8E9CDF9EACEFAEBCFFB25
:10084000120B1385D0F05804700320D5B3E8047060
:10085000075002B2D5020B5292D5EC0460F7E4CCFB
:10086000C0E0C398F8603B94186008400DD0E0FBEE
:10087000020B2AE4FBFAC9FC8028E830E406E4C94C
:10088000FBE4CAFCE830E305E4C9CACBFCE8540742
:100890006010F8C3E913F9EA13FAEB13FBEC13FC4D
:1008A000D8F130F52FC3E49CFCEF9BFFEE9AFEEDF0
:1008B00099FDD0E0FBEF4E4D4C701222DB03020B92
:1008C0004FEC2CFCEF33FFEE33FEED33FDED30E764
:1008D000EB020B2AEF2BFFEE3AFEED39FDD0E0FBE9
:1008E00050130BBB0003020B52ED13FDEE13FEEF92
:0808F00013FFEC13FC020B2ABC
:1008F800EC4D6011E8497017ED33EC3304600DE4FA
:10090800FCFFFEFD22E933E8330470F8020B4812BD
:100918000B1358046009E4CC2481500628500902BE
:100928000B52284003020B4FC0E0EB4A7044B980D9
:1009380006D0E0FB020B3EEF4E701CBD8008EBFFBB
:10094800EAFEE9FD80EBE98DF0A4FEE5F00209E19D
:10095800E9CDF9EAFEEBFFEF89F0A4FCE5F0CE89DA
:10096800F0A42EFFE435F0CD89F0A42DFEE435F097
:100978008067EF4E7005BD80D780C3EF8BF0A4ACC5
:10098800F0EE8BF0A42CFCE435F0F8EF8AF0A42C00
:10099800E5F038FCE433CB8DF0A42CFCE5F03BF813
:1009A800EE8AF0A42CFCE5F038F8E433CF89F0A403
:1009B8002CFCE5F038CF3400CE89F0A42FFFE5F009
:1009C8003EFEE433C98DF0A42EFEE5F039CD8AF061
:1009D800A42FFFE5F03EFEE43DFD33D0E0FB5007D9
:1009E8000BBB000F020B52EC2CFCEF33FFEE33FE77
:0609F800ED33FD020B2AA5
:1009FE00020B52EC5D046005E859047003020B48CB
:100A0E00120B13580460F6EC4860F2EC7004FDFE15
:100A1E00FF22C860DB2481C85009C39860025006CB
:100A2E00020B4F9850CAF582E9294B4A7005AB82EA
:100A3E00020B3E75F0007C1A7880C3EF9BEE9AEDA8
:100A4E0099400DC3EF9BFFEE9AFEED99FDE842F043
:100A5E00DC23ACF0D0E0FFD0E0FED0E0FDAB822096
:100A6E00E7101BEB60BAEC2CFCEF33FFEE33FEED20
:100A7E0033FD020B2AE803F830E705C0F075F000ED
:100A8E00EF2FFFEE33FEED33FD40B830E7C280AA04
:100A9E0075F020800E75F010800575F0087D007ED3
:100AAE00007F003392D530D503120CDEEC334010AC
:100ABE00EF33FFEE33FEED33FDEC33FCD5F0ED22DC
:0E0ACE00E5F0247EA2D513CC92E7CDCEFF2218
:100ADC00EDD2E7CD33EC3392D524814006E4FFFE12
:100AEC00FDFC22FCE4CFCECDCC24E0501174FF8071
:100AFC00EDC3CC13CCCD13CDCE13CECF13CF04700E
:070B0C00F030D5DE020CDE23
:100B1300E9D2E7C933E833F892D5EDD2E7CD33EC28
:070B230033FC5002B2D522A1
:100B2A00EC30E7100FBF000C0EBE00080DBD00042C
:100B3A000BEB6014A2D5EB13FCED92E7FD2274FFD8
:100B4A00FCFDFEFF22E480F8A2D574FF13FC7D8031
:030B5A00E480EF45
:100FCA0002104AE493A3F8E493A34003F68001F2E3
:100FDA0008DFF48029E493A3F85407240CC8C33328
:100FEA00C4540F4420C8834004F456800146F6DFF7
:100FFA00E4800B010204081020408090129AE47EDB
:10100A00019360BCA3FF543F30E509541FFEE493EB
:10101A00A360010ECF54C025E060A840B8E493A3B2
:10102A00FAE493A3F8E493A3C8C582C8CAC583CADD
:10103A00F0A3C8C582C8CAC583CADFE9DEE780BE95
:0112A200004B
:100B5D00E709F608DFFA8046E709F208DFFA803E7A
:100B6D0088828C83E709F0A3DFFA8032E309F60867
:100B7D00DFFA8078E309F208DFFA807088828C83CF
:100B8D00E309F0A3DFFA806489828A83E0A3F60883
:100B9D00DFFA805889828A83E0A3F208DFFA804C5D
:100BAD0080D280FA80C680D4806980F28033801034
:100BBD0080A680EA809A80A880DA80E280CA80339D
:100BCD0089828A83ECFAE493A3C8C582C8CCC58315
:100BDD00CCF0A3C8C582C8CCC583CCDFE9DEE780E5
:100BED000D89828A83E493A3F608DFF9ECFAA9F064
:100BFD00EDFB2289828A83ECFAE0A3C8C582C8CCBA
:100C0D00C583CCF0A3C8C582C8CCC583CCDFEADED2
:100C1D00E880DB89828A83E493A3F208DFF980CC34
:100C2D0088F0EF60010E4E60C388F0ED2402B4042D
:100C3D000050B9F582EB2402B4040050AF232345D4
:060C4D008223900BAD7341
:100C5300BC000BBE0029EF8DF084FFADF022E4CC85
:100C6300F875F008EF2FFFEE33FEEC33FCEE9DEC4E
:100C7300984005FCEE9DFE0FD5F0E9E4CEFD22ED94
:100C8300F8F5F0EE8420D21CFEADF075F008EF2FDE
:100C9300FFED33FD4007985006D5F0F222C398FDCF
:050CA3000FD5F0EA226C
:100CA800C2D5EC30E709B2D5E4C39DFDE49CFCEE67
:100CB80030E715B2D5E4C39FFFE49EFE120C53C380
:100CC800E49DFDE49CFC8003120C5330D507C3E47B
:060CD8009FFFE49EFE22D6
:0E0CDE00C3E49FFFE49EFEE49DFDE49CFC2227
:00000001FF
